{
  "_format": "hh-sol-artifact-1",
  "contractName": "Company",
  "sourceName": "contracts/Company.sol",
  "abi": [
    {
      "anonymous": false,
      "inputs": [
        {
          "indexed": true,
          "internalType": "address",
          "name": "previousOwner",
          "type": "address"
        },
        {
          "indexed": true,
          "internalType": "address",
          "name": "newOwner",
          "type": "address"
        }
      ],
      "name": "OwnershipTransferred",
      "type": "event"
    },
    {
      "anonymous": false,
      "inputs": [
        {
          "indexed": false,
          "internalType": "address",
          "name": "_employee",
          "type": "address"
        },
        {
          "indexed": false,
          "internalType": "address",
          "name": "_payrollLocation",
          "type": "address"
        }
      ],
      "name": "stopPaying",
      "type": "event"
    },
    {
      "inputs": [
        {
          "internalType": "address",
          "name": "_employee",
          "type": "address"
        },
        {
          "internalType": "uint256",
          "name": "_amt",
          "type": "uint256"
        }
      ],
      "name": "changeAmt",
      "outputs": [],
      "stateMutability": "nonpayable",
      "type": "function"
    },
    {
      "inputs": [
        {
          "internalType": "address",
          "name": "_new",
          "type": "address"
        }
      ],
      "name": "changeEmployeeAddress",
      "outputs": [],
      "stateMutability": "nonpayable",
      "type": "function"
    },
    {
      "inputs": [
        {
          "internalType": "address",
          "name": "_token",
          "type": "address"
        }
      ],
      "name": "changePaymentToken",
      "outputs": [],
      "stateMutability": "nonpayable",
      "type": "function"
    },
    {
      "inputs": [
        {
          "internalType": "uint256",
          "name": "_freq",
          "type": "uint256"
        }
      ],
      "name": "changePayrollFreq",
      "outputs": [],
      "stateMutability": "nonpayable",
      "type": "function"
    },
    {
      "inputs": [
        {
          "internalType": "address",
          "name": "_token",
          "type": "address"
        },
        {
          "internalType": "uint256",
          "name": "_amount",
          "type": "uint256"
        }
      ],
      "name": "deposit",
      "outputs": [],
      "stateMutability": "nonpayable",
      "type": "function"
    },
    {
      "inputs": [
        {
          "internalType": "address",
          "name": "",
          "type": "address"
        }
      ],
      "name": "employed",
      "outputs": [
        {
          "internalType": "bool",
          "name": "",
          "type": "bool"
        }
      ],
      "stateMutability": "view",
      "type": "function"
    },
    {
      "inputs": [
        {
          "internalType": "address",
          "name": "_employee",
          "type": "address"
        }
      ],
      "name": "fireEmployee",
      "outputs": [],
      "stateMutability": "nonpayable",
      "type": "function"
    },
    {
      "inputs": [
        {
          "internalType": "address",
          "name": "_employee",
          "type": "address"
        },
        {
          "internalType": "uint256",
          "name": "_amt",
          "type": "uint256"
        }
      ],
      "name": "newEmployee",
      "outputs": [],
      "stateMutability": "nonpayable",
      "type": "function"
    },
    {
      "inputs": [],
      "name": "owner",
      "outputs": [
        {
          "internalType": "address",
          "name": "",
          "type": "address"
        }
      ],
      "stateMutability": "view",
      "type": "function"
    },
    {
      "inputs": [
        {
          "internalType": "address",
          "name": "_employee",
          "type": "address"
        }
      ],
      "name": "payEmployee",
      "outputs": [],
      "stateMutability": "nonpayable",
      "type": "function"
    },
    {
      "inputs": [],
      "name": "paymentToken",
      "outputs": [
        {
          "internalType": "address",
          "name": "",
          "type": "address"
        }
      ],
      "stateMutability": "view",
      "type": "function"
    },
    {
      "inputs": [
        {
          "internalType": "address",
          "name": "",
          "type": "address"
        }
      ],
      "name": "payrollAddress",
      "outputs": [
        {
          "internalType": "address",
          "name": "",
          "type": "address"
        }
      ],
      "stateMutability": "view",
      "type": "function"
    },
    {
      "inputs": [],
      "name": "renounceOwnership",
      "outputs": [],
      "stateMutability": "nonpayable",
      "type": "function"
    },
    {
      "inputs": [
        {
          "internalType": "address",
          "name": "",
          "type": "address"
        }
      ],
      "name": "salaryAmt",
      "outputs": [
        {
          "internalType": "uint256",
          "name": "",
          "type": "uint256"
        }
      ],
      "stateMutability": "view",
      "type": "function"
    },
    {
      "inputs": [],
      "name": "salaryFreq",
      "outputs": [
        {
          "internalType": "uint256",
          "name": "",
          "type": "uint256"
        }
      ],
      "stateMutability": "view",
      "type": "function"
    },
    {
      "inputs": [
        {
          "internalType": "address",
          "name": "newOwner",
          "type": "address"
        }
      ],
      "name": "transferOwnership",
      "outputs": [],
      "stateMutability": "nonpayable",
      "type": "function"
    }
  ],
  "bytecode": "0x608060405234801561001057600080fd5b5061002d61002261003260201b60201c565b61003a60201b60201c565b6100fe565b600033905090565b60008060009054906101000a900473ffffffffffffffffffffffffffffffffffffffff169050816000806101000a81548173ffffffffffffffffffffffffffffffffffffffff021916908373ffffffffffffffffffffffffffffffffffffffff1602179055508173ffffffffffffffffffffffffffffffffffffffff168173ffffffffffffffffffffffffffffffffffffffff167f8be0079c531659141344cd1fd0a4f28419497f9722a3daafe3b4186f6b6457e060405160405180910390a35050565b611dff8061010d6000396000f3fe608060405234801561001057600080fd5b50600436106101005760003560e01c80635bdf47f4116100975780638da5cb5b116100665780638da5cb5b14610283578063b79b9516146102a1578063eef734b1146102bd578063f2fde38b146102d957610100565b80635bdf47f4146102115780635c645124146102415780636591c0d11461025d578063715018a61461027957610100565b806339e30a82116100d357806339e30a821461018d5780634558d717146101bd57806347e7ef24146101d9578063562baa17146101f557610100565b80630eec22a21461010557806313018cff146101235780631f50ad16146101535780633013ce291461016f575b600080fd5b61010d6102f5565b60405161011a9190611969565b60405180910390f35b61013d6004803603810190610138919061150b565b6102fb565b60405161014a9190611969565b60405180910390f35b61016d6004803603810190610168919061150b565b610313565b005b610177610488565b6040516101849190611788565b60405180910390f35b6101a760048036038101906101a2919061150b565b6104ae565b6040516101b4919061182c565b60405180910390f35b6101d760048036038101906101d2919061150b565b6104ce565b005b6101f360048036038101906101ee9190611534565b61058e565b005b61020f600480360381019061020a9190611534565b610671565b005b61022b6004803603810190610226919061150b565b61080b565b6040516102389190611788565b60405180910390f35b61025b60048036038101906102569190611599565b61083e565b005b6102776004803603810190610272919061150b565b6108c4565b005b610281610aac565b005b61028b610b34565b6040516102989190611788565b60405180910390f35b6102bb60048036038101906102b6919061150b565b610b5d565b005b6102d760048036038101906102d29190611534565b610dfd565b005b6102f360048036038101906102ee919061150b565b610f4d565b005b60025481565b60036020528060005260406000206000915090505481565b61031b611045565b73ffffffffffffffffffffffffffffffffffffffff16610339610b34565b73ffffffffffffffffffffffffffffffffffffffff161461038f576040517f08c379a000000000000000000000000000000000000000000000000000000000815260040161038690611909565b60405180910390fd5b610485600560008373ffffffffffffffffffffffffffffffffffffffff1673ffffffffffffffffffffffffffffffffffffffff16815260200190815260200160002060009054906101000a900473ffffffffffffffffffffffffffffffffffffffff1661043d600360008573ffffffffffffffffffffffffffffffffffffffff1673ffffffffffffffffffffffffffffffffffffffff1681526020019081526020016000205460025461104d565b600160009054906101000a900473ffffffffffffffffffffffffffffffffffffffff1673ffffffffffffffffffffffffffffffffffffffff1661108c9092919063ffffffff16565b50565b600160009054906101000a900473ffffffffffffffffffffffffffffffffffffffff1681565b60046020528060005260406000206000915054906101000a900460ff1681565b6104d6611045565b73ffffffffffffffffffffffffffffffffffffffff166104f4610b34565b73ffffffffffffffffffffffffffffffffffffffff161461054a576040517f08c379a000000000000000000000000000000000000000000000000000000000815260040161054190611909565b60405180910390fd5b80600160006101000a81548173ffffffffffffffffffffffffffffffffffffffff021916908373ffffffffffffffffffffffffffffffffffffffff16021790555050565b600160009054906101000a900473ffffffffffffffffffffffffffffffffffffffff1673ffffffffffffffffffffffffffffffffffffffff168273ffffffffffffffffffffffffffffffffffffffff161461061e576040517f08c379a0000000000000000000000000000000000000000000000000000000008152600401610615906118e9565b60405180910390fd5b61066d333083600160009054906101000a900473ffffffffffffffffffffffffffffffffffffffff1673ffffffffffffffffffffffffffffffffffffffff16611112909392919063ffffffff16565b5050565b610679611045565b73ffffffffffffffffffffffffffffffffffffffff16610697610b34565b73ffffffffffffffffffffffffffffffffffffffff16146106ed576040517f08c379a00000000000000000000000000000000000000000000000000000000081526004016106e490611909565b60405180910390fd5b80600360008473ffffffffffffffffffffffffffffffffffffffff1673ffffffffffffffffffffffffffffffffffffffff168152602001908152602001600020819055506001600460008473ffffffffffffffffffffffffffffffffffffffff1673ffffffffffffffffffffffffffffffffffffffff16815260200190815260200160002060006101000a81548160ff02191690831515021790555081600560008473ffffffffffffffffffffffffffffffffffffffff1673ffffffffffffffffffffffffffffffffffffffff16815260200190815260200160002060006101000a81548173ffffffffffffffffffffffffffffffffffffffff021916908373ffffffffffffffffffffffffffffffffffffffff1602179055505050565b60056020528060005260406000206000915054906101000a900473ffffffffffffffffffffffffffffffffffffffff1681565b610846611045565b73ffffffffffffffffffffffffffffffffffffffff16610864610b34565b73ffffffffffffffffffffffffffffffffffffffff16146108ba576040517f08c379a00000000000000000000000000000000000000000000000000000000081526004016108b190611909565b60405180910390fd5b8060028190555050565b600073ffffffffffffffffffffffffffffffffffffffff16600560003373ffffffffffffffffffffffffffffffffffffffff1673ffffffffffffffffffffffffffffffffffffffff16815260200190815260200160002060009054906101000a900473ffffffffffffffffffffffffffffffffffffffff1673ffffffffffffffffffffffffffffffffffffffff161415610993576040517f08c379a000000000000000000000000000000000000000000000000000000000815260040161098a906118c9565b60405180910390fd5b7fdd13b0f2d58edc01fd1c720c3f180311b00da0d09af96e85349de9e18d61fc7633600560003373ffffffffffffffffffffffffffffffffffffffff1673ffffffffffffffffffffffffffffffffffffffff16815260200190815260200160002060009054906101000a900473ffffffffffffffffffffffffffffffffffffffff16604051610a239291906117a3565b60405180910390a180600560003373ffffffffffffffffffffffffffffffffffffffff1673ffffffffffffffffffffffffffffffffffffffff16815260200190815260200160002060006101000a81548173ffffffffffffffffffffffffffffffffffffffff021916908373ffffffffffffffffffffffffffffffffffffffff16021790555050565b610ab4611045565b73ffffffffffffffffffffffffffffffffffffffff16610ad2610b34565b73ffffffffffffffffffffffffffffffffffffffff1614610b28576040517f08c379a0000000000000000000000000000000000000000000000000000000008152600401610b1f90611909565b60405180910390fd5b610b32600061119b565b565b60008060009054906101000a900473ffffffffffffffffffffffffffffffffffffffff16905090565b610b65611045565b73ffffffffffffffffffffffffffffffffffffffff16610b83610b34565b73ffffffffffffffffffffffffffffffffffffffff1614610bd9576040517f08c379a0000000000000000000000000000000000000000000000000000000008152600401610bd090611909565b60405180910390fd5b600460008273ffffffffffffffffffffffffffffffffffffffff1673ffffffffffffffffffffffffffffffffffffffff16815260200190815260200160002060009054906101000a900460ff16610c65576040517f08c379a0000000000000000000000000000000000000000000000000000000008152600401610c5c90611889565b60405180910390fd5b7fdd13b0f2d58edc01fd1c720c3f180311b00da0d09af96e85349de9e18d61fc7681600560008473ffffffffffffffffffffffffffffffffffffffff1673ffffffffffffffffffffffffffffffffffffffff16815260200190815260200160002060009054906101000a900473ffffffffffffffffffffffffffffffffffffffff16604051610cf59291906117a3565b60405180910390a16000600460008373ffffffffffffffffffffffffffffffffffffffff1673ffffffffffffffffffffffffffffffffffffffff16815260200190815260200160002060006101000a81548160ff021916908315150217905550600360008273ffffffffffffffffffffffffffffffffffffffff1673ffffffffffffffffffffffffffffffffffffffff16815260200190815260200160002060009055600560008273ffffffffffffffffffffffffffffffffffffffff1673ffffffffffffffffffffffffffffffffffffffff16815260200190815260200160002060006101000a81549073ffffffffffffffffffffffffffffffffffffffff021916905550565b610e05611045565b73ffffffffffffffffffffffffffffffffffffffff16610e23610b34565b73ffffffffffffffffffffffffffffffffffffffff1614610e79576040517f08c379a0000000000000000000000000000000000000000000000000000000008152600401610e7090611909565b60405180910390fd5b600460008373ffffffffffffffffffffffffffffffffffffffff1673ffffffffffffffffffffffffffffffffffffffff16815260200190815260200160002060009054906101000a900460ff16610f05576040517f08c379a0000000000000000000000000000000000000000000000000000000008152600401610efc90611889565b60405180910390fd5b80600360008473ffffffffffffffffffffffffffffffffffffffff1673ffffffffffffffffffffffffffffffffffffffff168152602001908152602001600020819055505050565b610f55611045565b73ffffffffffffffffffffffffffffffffffffffff16610f73610b34565b73ffffffffffffffffffffffffffffffffffffffff1614610fc9576040517f08c379a0000000000000000000000000000000000000000000000000000000008152600401610fc090611909565b60405180910390fd5b600073ffffffffffffffffffffffffffffffffffffffff168173ffffffffffffffffffffffffffffffffffffffff161415611039576040517f08c379a000000000000000000000000000000000000000000000000000000000815260040161103090611869565b60405180910390fd5b6110428161119b565b50565b600033905090565b600080828461105c9190611ab8565b1461106857600161106b565b60005b60ff16828461107a9190611a0c565b61108491906119b6565b905092915050565b61110d8363a9059cbb60e01b84846040516024016110ab929190611803565b604051602081830303815290604052907bffffffffffffffffffffffffffffffffffffffffffffffffffffffff19166020820180517bffffffffffffffffffffffffffffffffffffffffffffffffffffffff838183161783525050505061125f565b505050565b611195846323b872dd60e01b858585604051602401611133939291906117cc565b604051602081830303815290604052907bffffffffffffffffffffffffffffffffffffffffffffffffffffffff19166020820180517bffffffffffffffffffffffffffffffffffffffffffffffffffffffff838183161783525050505061125f565b50505050565b60008060009054906101000a900473ffffffffffffffffffffffffffffffffffffffff169050816000806101000a81548173ffffffffffffffffffffffffffffffffffffffff021916908373ffffffffffffffffffffffffffffffffffffffff1602179055508173ffffffffffffffffffffffffffffffffffffffff168173ffffffffffffffffffffffffffffffffffffffff167f8be0079c531659141344cd1fd0a4f28419497f9722a3daafe3b4186f6b6457e060405160405180910390a35050565b60006112c1826040518060400160405280602081526020017f5361666545524332303a206c6f772d6c6576656c2063616c6c206661696c65648152508573ffffffffffffffffffffffffffffffffffffffff166113269092919063ffffffff16565b905060008151111561132157808060200190518101906112e19190611570565b611320576040517f08c379a000000000000000000000000000000000000000000000000000000000815260040161131790611949565b60405180910390fd5b5b505050565b6060611335848460008561133e565b90509392505050565b606082471015611383576040517f08c379a000000000000000000000000000000000000000000000000000000000815260040161137a906118a9565b60405180910390fd5b61138c85611452565b6113cb576040517f08c379a00000000000000000000000000000000000000000000000000000000081526004016113c290611929565b60405180910390fd5b6000808673ffffffffffffffffffffffffffffffffffffffff1685876040516113f49190611771565b60006040518083038185875af1925050503d8060008114611431576040519150601f19603f3d011682016040523d82523d6000602084013e611436565b606091505b5091509150611446828286611465565b92505050949350505050565b600080823b905060008111915050919050565b60608315611475578290506114c5565b6000835111156114885782518084602001fd5b816040517f08c379a00000000000000000000000000000000000000000000000000000000081526004016114bc9190611847565b60405180910390fd5b9392505050565b6000813590506114db81611d84565b92915050565b6000815190506114f081611d9b565b92915050565b60008135905061150581611db2565b92915050565b60006020828403121561151d57600080fd5b600061152b848285016114cc565b91505092915050565b6000806040838503121561154757600080fd5b6000611555858286016114cc565b9250506020611566858286016114f6565b9150509250929050565b60006020828403121561158257600080fd5b6000611590848285016114e1565b91505092915050565b6000602082840312156115ab57600080fd5b60006115b9848285016114f6565b91505092915050565b6115cb81611a3d565b82525050565b6115da81611a4f565b82525050565b60006115eb82611984565b6115f5818561199a565b9350611605818560208601611a85565b80840191505092915050565b600061161c8261198f565b61162681856119a5565b9350611636818560208601611a85565b61163f81611b47565b840191505092915050565b60006116576026836119a5565b915061166282611b58565b604082019050919050565b600061167a6020836119a5565b915061168582611ba7565b602082019050919050565b600061169d6026836119a5565b91506116a882611bd0565b604082019050919050565b60006116c0604d836119a5565b91506116cb82611c1f565b606082019050919050565b60006116e36033836119a5565b91506116ee82611c94565b604082019050919050565b60006117066020836119a5565b915061171182611ce3565b602082019050919050565b6000611729601d836119a5565b915061173482611d0c565b602082019050919050565b600061174c602a836119a5565b915061175782611d35565b604082019050919050565b61176b81611a7b565b82525050565b600061177d82846115e0565b915081905092915050565b600060208201905061179d60008301846115c2565b92915050565b60006040820190506117b860008301856115c2565b6117c560208301846115c2565b9392505050565b60006060820190506117e160008301866115c2565b6117ee60208301856115c2565b6117fb6040830184611762565b949350505050565b600060408201905061181860008301856115c2565b6118256020830184611762565b9392505050565b600060208201905061184160008301846115d1565b92915050565b600060208201905081810360008301526118618184611611565b905092915050565b600060208201905081810360008301526118828161164a565b9050919050565b600060208201905081810360008301526118a28161166d565b9050919050565b600060208201905081810360008301526118c281611690565b9050919050565b600060208201905081810360008301526118e2816116b3565b9050919050565b60006020820190508181036000830152611902816116d6565b9050919050565b60006020820190508181036000830152611922816116f9565b9050919050565b600060208201905081810360008301526119428161171c565b9050919050565b600060208201905081810360008301526119628161173f565b9050919050565b600060208201905061197e6000830184611762565b92915050565b600081519050919050565b600081519050919050565b600081905092915050565b600082825260208201905092915050565b60006119c182611a7b565b91506119cc83611a7b565b9250827fffffffffffffffffffffffffffffffffffffffffffffffffffffffffffffffff03821115611a0157611a00611ae9565b5b828201905092915050565b6000611a1782611a7b565b9150611a2283611a7b565b925082611a3257611a31611b18565b5b828204905092915050565b6000611a4882611a5b565b9050919050565b60008115159050919050565b600073ffffffffffffffffffffffffffffffffffffffff82169050919050565b6000819050919050565b60005b83811015611aa3578082015181840152602081019050611a88565b83811115611ab2576000848401525b50505050565b6000611ac382611a7b565b9150611ace83611a7b565b925082611ade57611add611b18565b5b828206905092915050565b7f4e487b7100000000000000000000000000000000000000000000000000000000600052601160045260246000fd5b7f4e487b7100000000000000000000000000000000000000000000000000000000600052601260045260246000fd5b6000601f19601f8301169050919050565b7f4f776e61626c653a206e6577206f776e657220697320746865207a65726f206160008201527f6464726573730000000000000000000000000000000000000000000000000000602082015250565b7f4d75737420626520656d706c6f7965642062792074686520636f6d70616e792e600082015250565b7f416464726573733a20696e73756666696369656e742062616c616e636520666f60008201527f722063616c6c0000000000000000000000000000000000000000000000000000602082015250565b7f43616e2774206368616e676520706179726f6c6c20616464726573732069662060008201527f7468617420656d706c6f79656520646f65736e2774206861766520612070617960208201527f726f6c6c20616464726573732e00000000000000000000000000000000000000604082015250565b7f506179726f6c6c2063616e206f6e6c792061636365707420746865206f66666960008201527f6369616c207061796d656e7420746f6b656e2e00000000000000000000000000602082015250565b7f4f776e61626c653a2063616c6c6572206973206e6f7420746865206f776e6572600082015250565b7f416464726573733a2063616c6c20746f206e6f6e2d636f6e7472616374000000600082015250565b7f5361666545524332303a204552433230206f7065726174696f6e20646964206e60008201527f6f74207375636365656400000000000000000000000000000000000000000000602082015250565b611d8d81611a3d565b8114611d9857600080fd5b50565b611da481611a4f565b8114611daf57600080fd5b50565b611dbb81611a7b565b8114611dc657600080fd5b5056fea2646970667358221220d7f39d809243607c55de64176ddebaa134c59cb8c4f997066782405f34d13c4364736f6c63430008040033",
  "linkReferences": {},
  "deployedLinkReferences": {}
}