{
  "_format": "hh-sol-artifact-1",
  "contractName": "Company",
  "sourceName": "contracts/Company.sol",
  "abi": [
    {
      "anonymous": false,
      "inputs": [
        {
          "indexed": true,
          "internalType": "address",
          "name": "previousOwner",
          "type": "address"
        },
        {
          "indexed": true,
          "internalType": "address",
          "name": "newOwner",
          "type": "address"
        }
      ],
      "name": "OwnershipTransferred",
      "type": "event"
    },
    {
      "inputs": [
        {
          "internalType": "address",
          "name": "_former",
          "type": "address"
        },
        {
          "internalType": "address",
          "name": "_new",
          "type": "address"
        }
      ],
      "name": "changeEmployeeAddress",
      "outputs": [],
      "stateMutability": "nonpayable",
      "type": "function"
    },
    {
      "inputs": [
        {
          "internalType": "address",
          "name": "_token",
          "type": "address"
        }
      ],
      "name": "changePaymentToken",
      "outputs": [],
      "stateMutability": "nonpayable",
      "type": "function"
    },
    {
      "inputs": [
        {
          "internalType": "address",
          "name": "_employee",
          "type": "address"
        },
        {
          "internalType": "uint256",
          "name": "_amt",
          "type": "uint256"
        }
      ],
      "name": "changeSalaryAmount",
      "outputs": [],
      "stateMutability": "nonpayable",
      "type": "function"
    },
    {
      "inputs": [
        {
          "internalType": "address",
          "name": "_employee",
          "type": "address"
        },
        {
          "internalType": "uint256",
          "name": "_freq",
          "type": "uint256"
        }
      ],
      "name": "changeSalaryFrequency",
      "outputs": [],
      "stateMutability": "nonpayable",
      "type": "function"
    },
    {
      "inputs": [
        {
          "internalType": "address",
          "name": "_token",
          "type": "address"
        },
        {
          "internalType": "uint256",
          "name": "_amount",
          "type": "uint256"
        }
      ],
      "name": "deposit",
      "outputs": [],
      "stateMutability": "nonpayable",
      "type": "function"
    },
    {
      "inputs": [
        {
          "internalType": "address",
          "name": "_employee",
          "type": "address"
        }
      ],
      "name": "fireEmployee",
      "outputs": [],
      "stateMutability": "nonpayable",
      "type": "function"
    },
    {
      "inputs": [],
      "name": "owner",
      "outputs": [
        {
          "internalType": "address",
          "name": "",
          "type": "address"
        }
      ],
      "stateMutability": "view",
      "type": "function"
    },
    {
      "inputs": [
        {
          "internalType": "address",
          "name": "_employee",
          "type": "address"
        }
      ],
      "name": "payEmployee",
      "outputs": [],
      "stateMutability": "nonpayable",
      "type": "function"
    },
    {
      "inputs": [],
      "name": "paymentToken",
      "outputs": [
        {
          "internalType": "address",
          "name": "",
          "type": "address"
        }
      ],
      "stateMutability": "view",
      "type": "function"
    },
    {
      "inputs": [],
      "name": "renounceOwnership",
      "outputs": [],
      "stateMutability": "nonpayable",
      "type": "function"
    },
    {
      "inputs": [
        {
          "internalType": "address",
          "name": "_employee",
          "type": "address"
        }
      ],
      "name": "salaryAmount",
      "outputs": [
        {
          "internalType": "uint256",
          "name": "",
          "type": "uint256"
        }
      ],
      "stateMutability": "view",
      "type": "function"
    },
    {
      "inputs": [
        {
          "internalType": "address",
          "name": "",
          "type": "address"
        }
      ],
      "name": "salaryAmt",
      "outputs": [
        {
          "internalType": "uint256",
          "name": "",
          "type": "uint256"
        }
      ],
      "stateMutability": "view",
      "type": "function"
    },
    {
      "inputs": [
        {
          "internalType": "address",
          "name": "",
          "type": "address"
        }
      ],
      "name": "salaryAmt",
      "outputs": [
        {
          "internalType": "uint256",
          "name": "",
          "type": "uint256"
        }
      ],
      "stateMutability": "view",
      "type": "function"
    },
    {
      "inputs": [
        {
          "internalType": "address",
          "name": "_employee",
          "type": "address"
        }
      ],
      "name": "salaryFrequency",
      "outputs": [
        {
          "internalType": "uint256",
          "name": "",
          "type": "uint256"
        }
      ],
      "stateMutability": "view",
      "type": "function"
    },
    {
      "inputs": [
        {
          "internalType": "address",
          "name": "newOwner",
          "type": "address"
        }
      ],
      "name": "transferOwnership",
      "outputs": [],
      "stateMutability": "nonpayable",
      "type": "function"
    }
  ],
  "bytecode": "0x608060405234801561001057600080fd5b5061002d61002261003260201b60201c565b61003a60201b60201c565b6100fe565b600033905090565b60008060009054906101000a900473ffffffffffffffffffffffffffffffffffffffff169050816000806101000a81548173ffffffffffffffffffffffffffffffffffffffff021916908373ffffffffffffffffffffffffffffffffffffffff1602179055508173ffffffffffffffffffffffffffffffffffffffff168173ffffffffffffffffffffffffffffffffffffffff167f8be0079c531659141344cd1fd0a4f28419497f9722a3daafe3b4186f6b6457e060405160405180910390a35050565b611a3d8061010d6000396000f3fe608060405234801561001057600080fd5b50600436106100f55760003560e01c8063715018a611610097578063c1d7a79b11610066578063c1d7a79b14610248578063c1ed6e6d14610278578063e63b7d5614610294578063f2fde38b146102c4576100f5565b8063715018a6146101e85780638da5cb5b146101f2578063adbb445514610210578063b79b95161461022c576100f5565b80634558d717116100d35780634558d7171461016457806347e7ef241461018057806356c7dfeb1461019c5780635939185a146101b8576100f5565b806313018cff146100fa5780631f50ad161461012a5780633013ce2914610146575b600080fd5b610114600480360381019061010f91906111f5565b6102e0565b60405161012191906115d0565b60405180910390f35b610144600480360381019061013f91906111f5565b6102f8565b005b61014e61044b565b60405161015b9190611453565b60405180910390f35b61017e600480360381019061017991906111f5565b610471565b005b61019a6004803603810190610195919061125a565b610531565b005b6101b660048036038101906101b1919061125a565b610614565b005b6101d260048036038101906101cd91906111f5565b6106d8565b6040516101df91906115d0565b60405180910390f35b6101f06106f0565b005b6101fa610778565b6040516102079190611453565b60405180910390f35b61022a6004803603810190610225919061121e565b6107a1565b005b610246600480360381019061024191906111f5565b6109dc565b005b610262600480360381019061025d91906111f5565b610ae1565b60405161026f91906115d0565b60405180910390f35b610292600480360381019061028d919061125a565b610b2a565b005b6102ae60048036038101906102a991906111f5565b610bee565b6040516102bb91906115d0565b60405180910390f35b6102de60048036038101906102d991906111f5565b610c37565b005b60036020528060005260406000206000915090505481565b610300610d2f565b73ffffffffffffffffffffffffffffffffffffffff1661031e610778565b73ffffffffffffffffffffffffffffffffffffffff1614610374576040517f08c379a000000000000000000000000000000000000000000000000000000000815260040161036b90611550565b60405180910390fd5b61044881610400600360008573ffffffffffffffffffffffffffffffffffffffff1673ffffffffffffffffffffffffffffffffffffffff16815260200190815260200160002054600260008673ffffffffffffffffffffffffffffffffffffffff1673ffffffffffffffffffffffffffffffffffffffff16815260200190815260200160002054610d37565b600160009054906101000a900473ffffffffffffffffffffffffffffffffffffffff1673ffffffffffffffffffffffffffffffffffffffff16610d769092919063ffffffff16565b50565b600160009054906101000a900473ffffffffffffffffffffffffffffffffffffffff1681565b610479610d2f565b73ffffffffffffffffffffffffffffffffffffffff16610497610778565b73ffffffffffffffffffffffffffffffffffffffff16146104ed576040517f08c379a00000000000000000000000000000000000000000000000000000000081526004016104e490611550565b60405180910390fd5b80600160006101000a81548173ffffffffffffffffffffffffffffffffffffffff021916908373ffffffffffffffffffffffffffffffffffffffff16021790555050565b600160009054906101000a900473ffffffffffffffffffffffffffffffffffffffff1673ffffffffffffffffffffffffffffffffffffffff168273ffffffffffffffffffffffffffffffffffffffff16146105c1576040517f08c379a00000000000000000000000000000000000000000000000000000000081526004016105b890611530565b60405180910390fd5b610610333083600160009054906101000a900473ffffffffffffffffffffffffffffffffffffffff1673ffffffffffffffffffffffffffffffffffffffff16610dfc909392919063ffffffff16565b5050565b61061c610d2f565b73ffffffffffffffffffffffffffffffffffffffff1661063a610778565b73ffffffffffffffffffffffffffffffffffffffff1614610690576040517f08c379a000000000000000000000000000000000000000000000000000000000815260040161068790611550565b60405180910390fd5b80600260008473ffffffffffffffffffffffffffffffffffffffff1673ffffffffffffffffffffffffffffffffffffffff168152602001908152602001600020819055505050565b60026020528060005260406000206000915090505481565b6106f8610d2f565b73ffffffffffffffffffffffffffffffffffffffff16610716610778565b73ffffffffffffffffffffffffffffffffffffffff161461076c576040517f08c379a000000000000000000000000000000000000000000000000000000000815260040161076390611550565b60405180910390fd5b6107766000610e85565b565b60008060009054906101000a900473ffffffffffffffffffffffffffffffffffffffff16905090565b8173ffffffffffffffffffffffffffffffffffffffff163373ffffffffffffffffffffffffffffffffffffffff16148061080d57506107de610778565b73ffffffffffffffffffffffffffffffffffffffff163373ffffffffffffffffffffffffffffffffffffffff16145b61084c576040517f08c379a000000000000000000000000000000000000000000000000000000000815260040161084390611570565b60405180910390fd5b600260008373ffffffffffffffffffffffffffffffffffffffff1673ffffffffffffffffffffffffffffffffffffffff16815260200190815260200160002054600260008373ffffffffffffffffffffffffffffffffffffffff1673ffffffffffffffffffffffffffffffffffffffff16815260200190815260200160002081905550600360008373ffffffffffffffffffffffffffffffffffffffff1673ffffffffffffffffffffffffffffffffffffffff16815260200190815260200160002054600360008373ffffffffffffffffffffffffffffffffffffffff1673ffffffffffffffffffffffffffffffffffffffff16815260200190815260200160002081905550600260008373ffffffffffffffffffffffffffffffffffffffff1673ffffffffffffffffffffffffffffffffffffffff16815260200190815260200160002060009055600360008373ffffffffffffffffffffffffffffffffffffffff1673ffffffffffffffffffffffffffffffffffffffff168152602001908152602001600020600090555050565b6109e4610d2f565b73ffffffffffffffffffffffffffffffffffffffff16610a02610778565b73ffffffffffffffffffffffffffffffffffffffff1614610a58576040517f08c379a0000000000000000000000000000000000000000000000000000000008152600401610a4f90611550565b60405180910390fd5b600260008273ffffffffffffffffffffffffffffffffffffffff1673ffffffffffffffffffffffffffffffffffffffff16815260200190815260200160002060009055600360008273ffffffffffffffffffffffffffffffffffffffff1673ffffffffffffffffffffffffffffffffffffffff1681526020019081526020016000206000905550565b6000600360008373ffffffffffffffffffffffffffffffffffffffff1673ffffffffffffffffffffffffffffffffffffffff168152602001908152602001600020549050919050565b610b32610d2f565b73ffffffffffffffffffffffffffffffffffffffff16610b50610778565b73ffffffffffffffffffffffffffffffffffffffff1614610ba6576040517f08c379a0000000000000000000000000000000000000000000000000000000008152600401610b9d90611550565b60405180910390fd5b80600260008473ffffffffffffffffffffffffffffffffffffffff1673ffffffffffffffffffffffffffffffffffffffff168152602001908152602001600020819055505050565b6000600260008373ffffffffffffffffffffffffffffffffffffffff1673ffffffffffffffffffffffffffffffffffffffff168152602001908152602001600020549050919050565b610c3f610d2f565b73ffffffffffffffffffffffffffffffffffffffff16610c5d610778565b73ffffffffffffffffffffffffffffffffffffffff1614610cb3576040517f08c379a0000000000000000000000000000000000000000000000000000000008152600401610caa90611550565b60405180910390fd5b600073ffffffffffffffffffffffffffffffffffffffff168173ffffffffffffffffffffffffffffffffffffffff161415610d23576040517f08c379a0000000000000000000000000000000000000000000000000000000008152600401610d1a906114f0565b60405180910390fd5b610d2c81610e85565b50565b600033905090565b6000808284610d46919061171f565b14610d52576001610d55565b60005b60ff168284610d649190611673565b610d6e919061161d565b905092915050565b610df78363a9059cbb60e01b8484604051602401610d959291906114a5565b604051602081830303815290604052907bffffffffffffffffffffffffffffffffffffffffffffffffffffffff19166020820180517bffffffffffffffffffffffffffffffffffffffffffffffffffffffff8381831617835250505050610f49565b505050565b610e7f846323b872dd60e01b858585604051602401610e1d9392919061146e565b604051602081830303815290604052907bffffffffffffffffffffffffffffffffffffffffffffffffffffffff19166020820180517bffffffffffffffffffffffffffffffffffffffffffffffffffffffff8381831617835250505050610f49565b50505050565b60008060009054906101000a900473ffffffffffffffffffffffffffffffffffffffff169050816000806101000a81548173ffffffffffffffffffffffffffffffffffffffff021916908373ffffffffffffffffffffffffffffffffffffffff1602179055508173ffffffffffffffffffffffffffffffffffffffff168173ffffffffffffffffffffffffffffffffffffffff167f8be0079c531659141344cd1fd0a4f28419497f9722a3daafe3b4186f6b6457e060405160405180910390a35050565b6000610fab826040518060400160405280602081526020017f5361666545524332303a206c6f772d6c6576656c2063616c6c206661696c65648152508573ffffffffffffffffffffffffffffffffffffffff166110109092919063ffffffff16565b905060008151111561100b5780806020019051810190610fcb9190611296565b61100a576040517f08c379a0000000000000000000000000000000000000000000000000000000008152600401611001906115b0565b60405180910390fd5b5b505050565b606061101f8484600085611028565b90509392505050565b60608247101561106d576040517f08c379a000000000000000000000000000000000000000000000000000000000815260040161106490611510565b60405180910390fd5b6110768561113c565b6110b5576040517f08c379a00000000000000000000000000000000000000000000000000000000081526004016110ac90611590565b60405180910390fd5b6000808673ffffffffffffffffffffffffffffffffffffffff1685876040516110de919061143c565b60006040518083038185875af1925050503d806000811461111b576040519150601f19603f3d011682016040523d82523d6000602084013e611120565b606091505b509150915061113082828661114f565b92505050949350505050565b600080823b905060008111915050919050565b6060831561115f578290506111af565b6000835111156111725782518084602001fd5b816040517f08c379a00000000000000000000000000000000000000000000000000000000081526004016111a691906114ce565b60405180910390fd5b9392505050565b6000813590506111c5816119c2565b92915050565b6000815190506111da816119d9565b92915050565b6000813590506111ef816119f0565b92915050565b60006020828403121561120757600080fd5b6000611215848285016111b6565b91505092915050565b6000806040838503121561123157600080fd5b600061123f858286016111b6565b9250506020611250858286016111b6565b9150509250929050565b6000806040838503121561126d57600080fd5b600061127b858286016111b6565b925050602061128c858286016111e0565b9150509250929050565b6000602082840312156112a857600080fd5b60006112b6848285016111cb565b91505092915050565b6112c8816116a4565b82525050565b60006112d9826115eb565b6112e38185611601565b93506112f38185602086016116ec565b80840191505092915050565b600061130a826115f6565b611314818561160c565b93506113248185602086016116ec565b61132d816117ae565b840191505092915050565b600061134560268361160c565b9150611350826117bf565b604082019050919050565b600061136860268361160c565b91506113738261180e565b604082019050919050565b600061138b60248361160c565b91506113968261185d565b604082019050919050565b60006113ae60208361160c565b91506113b9826118ac565b602082019050919050565b60006113d160458361160c565b91506113dc826118d5565b606082019050919050565b60006113f4601d8361160c565b91506113ff8261194a565b602082019050919050565b6000611417602a8361160c565b915061142282611973565b604082019050919050565b611436816116e2565b82525050565b600061144882846112ce565b915081905092915050565b600060208201905061146860008301846112bf565b92915050565b600060608201905061148360008301866112bf565b61149060208301856112bf565b61149d604083018461142d565b949350505050565b60006040820190506114ba60008301856112bf565b6114c7602083018461142d565b9392505050565b600060208201905081810360008301526114e881846112ff565b905092915050565b6000602082019050818103600083015261150981611338565b9050919050565b600060208201905081810360008301526115298161135b565b9050919050565b600060208201905081810360008301526115498161137e565b9050919050565b60006020820190508181036000830152611569816113a1565b9050919050565b60006020820190508181036000830152611589816113c4565b9050919050565b600060208201905081810360008301526115a9816113e7565b9050919050565b600060208201905081810360008301526115c98161140a565b9050919050565b60006020820190506115e5600083018461142d565b92915050565b600081519050919050565b600081519050919050565b600081905092915050565b600082825260208201905092915050565b6000611628826116e2565b9150611633836116e2565b9250827fffffffffffffffffffffffffffffffffffffffffffffffffffffffffffffffff0382111561166857611667611750565b5b828201905092915050565b600061167e826116e2565b9150611689836116e2565b9250826116995761169861177f565b5b828204905092915050565b60006116af826116c2565b9050919050565b60008115159050919050565b600073ffffffffffffffffffffffffffffffffffffffff82169050919050565b6000819050919050565b60005b8381101561170a5780820151818401526020810190506116ef565b83811115611719576000848401525b50505050565b600061172a826116e2565b9150611735836116e2565b9250826117455761174461177f565b5b828206905092915050565b7f4e487b7100000000000000000000000000000000000000000000000000000000600052601160045260246000fd5b7f4e487b7100000000000000000000000000000000000000000000000000000000600052601260045260246000fd5b6000601f19601f8301169050919050565b7f4f776e61626c653a206e6577206f776e657220697320746865207a65726f206160008201527f6464726573730000000000000000000000000000000000000000000000000000602082015250565b7f416464726573733a20696e73756666696369656e742062616c616e636520666f60008201527f722063616c6c0000000000000000000000000000000000000000000000000000602082015250565b7f5061796d656e742073797374656d2063616e206f6e6c7920616363657074205560008201527f5344432e00000000000000000000000000000000000000000000000000000000602082015250565b7f4f776e61626c653a2063616c6c6572206973206e6f7420746865206f776e6572600082015250565b7f4f6e6c7920656d706c6f796572206f7220737065636966696320656d706c6f7960008201527f65652063616e206368616e6765207468656972207061796d656e74206c6f636160208201527f74696f6e2e000000000000000000000000000000000000000000000000000000604082015250565b7f416464726573733a2063616c6c20746f206e6f6e2d636f6e7472616374000000600082015250565b7f5361666545524332303a204552433230206f7065726174696f6e20646964206e60008201527f6f74207375636365656400000000000000000000000000000000000000000000602082015250565b6119cb816116a4565b81146119d657600080fd5b50565b6119e2816116b6565b81146119ed57600080fd5b50565b6119f9816116e2565b8114611a0457600080fd5b5056fea26469706673582212207e208c3c745f4c1cee34f75fe0880316d710c37a17edc063bf0eb879c3b5de7264736f6c63430008040033",
  "linkReferences": {},
  "deployedLinkReferences": {}
}